{
  "contractName": "Hash",
  "abi": [
    {
      "constant": true,
      "inputs": [],
      "name": "secret",
      "outputs": [
        {
          "internalType": "uint256",
          "name": "",
          "type": "uint256"
        }
      ],
      "payable": false,
      "stateMutability": "view",
      "type": "function"
    },
    {
      "constant": false,
      "inputs": [
        {
          "internalType": "uint256",
          "name": "_secret",
          "type": "uint256"
        }
      ],
      "name": "setSecret",
      "outputs": [
        {
          "internalType": "uint256",
          "name": "",
          "type": "uint256"
        }
      ],
      "payable": false,
      "stateMutability": "nonpayable",
      "type": "function"
    }
  ],
  "bytecode": "0x608060405234801561001057600080fd5b5060de8061001f6000396000f3fe6080604052348015600f57600080fd5b506004361060325760003560e01c80633b4dbf8b146037578063d1efd30d146076575b600080fd5b606060048036036020811015604b57600080fd5b81019080803590602001909291905050506092565b6040518082815260200191505060405180910390f35b607c60a3565b6040518082815260200191505060405180910390f35b600081600081905550819050919050565b6000548156fea265627a7a7231582036a677fe8f70a8797f64f043957b0730189382582aae996b0b31f9cecb7b1f7664736f6c63430005100032",
  "source": "pragma solidity >=0.4.21 <0.7.0;\n\ncontract Hash {\n  \n  uint public secret;\n\n  function setSecret(uint _secret) public returns (uint) {\n    secret = _secret;\n    return _secret;\n  }\n}\n",
  "sourcePath": "/Users/fabianscherer/Documents/GitHub/commit-reveal/smart-contracts/contracts/Hash.sol",
  "compiler": {
    "name": "solc",
    "version": "0.5.16+commit.9c3226ce.Emscripten.clang"
  },
  "schemaVersion": "3.2.0",
  "updatedAt": "2020-06-21T21:03:44.838Z",
  "networkType": "ethereum",
  "devdoc": {
    "methods": {}
  },
  "userdoc": {
    "methods": {}
  }
}